{
  "_format": "hh-sol-artifact-1",
  "contractName": "RentalAgreement",
  "sourceName": "contracts/RentalAgreement.sol",
  "abi": [
    {
      "inputs": [
        {
          "internalType": "string",
          "name": "_landlordName",
          "type": "string"
        },
        {
          "internalType": "string",
          "name": "_tenantName",
          "type": "string"
        },
        {
          "internalType": "string",
          "name": "_propertyAddress",
          "type": "string"
        },
        {
          "internalType": "string",
          "name": "_securityDepositAmount",
          "type": "string"
        },
        {
          "internalType": "string",
          "name": "_rentAmount",
          "type": "string"
        },
        {
          "internalType": "string",
          "name": "_paymentSchedule",
          "type": "string"
        }
      ],
      "stateMutability": "nonpayable",
      "type": "constructor"
    },
    {
      "inputs": [
        {
          "internalType": "string",
          "name": "_landlordName",
          "type": "string"
        },
        {
          "internalType": "string",
          "name": "_tenantName",
          "type": "string"
        },
        {
          "internalType": "string",
          "name": "_propertyAddress",
          "type": "string"
        },
        {
          "internalType": "string",
          "name": "_securityDepositAmount",
          "type": "string"
        },
        {
          "internalType": "string",
          "name": "_rentAmount",
          "type": "string"
        },
        {
          "internalType": "string",
          "name": "_paymentSchedule",
          "type": "string"
        }
      ],
      "name": "setContractValues",
      "outputs": [],
      "stateMutability": "nonpayable",
      "type": "function"
    }
  ],
  "bytecode": "0x60806040523480156200001157600080fd5b5060405162000e8838038062000e888339818101604052810190620000379190620002f6565b620000666040518060600160405280603d815260200162000e4b603d91396200010860201b620002581760201c565b85600090805190602001906200007e929190620001d4565b50846001908051906020019062000097929190620001d4565b508360029080519060200190620000b0929190620001d4565b508260039080519060200190620000c9929190620001d4565b508160049080519060200190620000e2929190620001d4565b508060059080519060200190620000fb929190620001d4565b5050505050505062000613565b620001a8816040516024016200011f919062000463565b6040516020818303038152906040527f41304fac000000000000000000000000000000000000000000000000000000007bffffffffffffffffffffffffffffffffffffffffffffffffffffffff19166020820180517bffffffffffffffffffffffffffffffffffffffffffffffffffffffff8381831617835250505050620001ab60201b60201c565b50565b60008151905060006a636f6e736f6c652e6c6f679050602083016000808483855afa5050505050565b828054620001e29062000538565b90600052602060002090601f01602090048101928262000206576000855562000252565b82601f106200022157805160ff191683800117855562000252565b8280016001018555821562000252579182015b828111156200025157825182559160200191906001019062000234565b5b50905062000261919062000265565b5090565b5b808211156200028057600081600090555060010162000266565b5090565b60006200029b6200029584620004b0565b62000487565b905082815260208101848484011115620002b457600080fd5b620002c184828562000502565b509392505050565b600082601f830112620002db57600080fd5b8151620002ed84826020860162000284565b91505092915050565b60008060008060008060c087890312156200031057600080fd5b600087015167ffffffffffffffff8111156200032b57600080fd5b6200033989828a01620002c9565b965050602087015167ffffffffffffffff8111156200035757600080fd5b6200036589828a01620002c9565b955050604087015167ffffffffffffffff8111156200038357600080fd5b6200039189828a01620002c9565b945050606087015167ffffffffffffffff811115620003af57600080fd5b620003bd89828a01620002c9565b935050608087015167ffffffffffffffff811115620003db57600080fd5b620003e989828a01620002c9565b92505060a087015167ffffffffffffffff8111156200040757600080fd5b6200041589828a01620002c9565b9150509295509295509295565b60006200042f82620004e6565b6200043b8185620004f1565b93506200044d81856020860162000502565b620004588162000602565b840191505092915050565b600060208201905081810360008301526200047f818462000422565b905092915050565b600062000493620004a6565b9050620004a182826200056e565b919050565b6000604051905090565b600067ffffffffffffffff821115620004ce57620004cd620005d3565b5b620004d98262000602565b9050602081019050919050565b600081519050919050565b600082825260208201905092915050565b60005b838110156200052257808201518184015260208101905062000505565b8381111562000532576000848401525b50505050565b600060028204905060018216806200055157607f821691505b60208210811415620005685762000567620005a4565b5b50919050565b620005798262000602565b810181811067ffffffffffffffff821117156200059b576200059a620005d3565b5b80604052505050565b7f4e487b7100000000000000000000000000000000000000000000000000000000600052602260045260246000fd5b7f4e487b7100000000000000000000000000000000000000000000000000000000600052604160045260246000fd5b6000601f19601f8301169050919050565b61082880620006236000396000f3fe608060405234801561001057600080fd5b506004361061002b5760003560e01c8063c414765f14610030575b600080fd5b61004a600480360381019061004591906104c1565b61004c565b005b61008b6040518060400160405280601781526020017f53657474696e67206c616e646c6f72644e616d65203d20000000000000000000815250876102f1565b85600090805190602001906100a19291906103b6565b506100e16040518060400160405280601581526020017f53657474696e672074656e616e744e616d65203d200000000000000000000000815250866102f1565b84600190805190602001906100f79291906103b6565b506101376040518060400160405280601a81526020017f53657474696e672070726f706572747941646472657373203d20000000000000815250856102f1565b836002908051906020019061014d9291906103b6565b5061018d6040518060400160405280602081526020017f53657474696e672073656375726974794465706f736974416d6f756e74203d20815250846102f1565b82600390805190602001906101a39291906103b6565b506101e36040518060400160405280601581526020017f53657474696e672072656e74416d6f756e74203d200000000000000000000000815250836102f1565b81600490805190602001906101f99291906103b6565b506102396040518060400160405280601a81526020017f53657474696e67207061796d656e745363686564756c65203d20000000000000815250826102f1565b806005908051906020019061024f9291906103b6565b50505050505050565b6102ee8160405160240161026c9190610613565b6040516020818303038152906040527f41304fac000000000000000000000000000000000000000000000000000000007bffffffffffffffffffffffffffffffffffffffffffffffffffffffff19166020820180517bffffffffffffffffffffffffffffffffffffffffffffffffffffffff838183161783525050505061038d565b50565b6103898282604051602401610307929190610635565b6040516020818303038152906040527f4b5c4277000000000000000000000000000000000000000000000000000000007bffffffffffffffffffffffffffffffffffffffffffffffffffffffff19166020820180517bffffffffffffffffffffffffffffffffffffffffffffffffffffffff838183161783525050505061038d565b5050565b60008151905060006a636f6e736f6c652e6c6f679050602083016000808483855afa5050505050565b8280546103c290610720565b90600052602060002090601f0160209004810192826103e4576000855561042b565b82601f106103fd57805160ff191683800117855561042b565b8280016001018555821561042b579182015b8281111561042a57825182559160200191906001019061040f565b5b509050610438919061043c565b5090565b5b8082111561045557600081600090555060010161043d565b5090565b600061046c61046784610691565b61066c565b90508281526020810184848401111561048457600080fd5b61048f8482856106de565b509392505050565b600082601f8301126104a857600080fd5b81356104b8848260208601610459565b91505092915050565b60008060008060008060c087890312156104da57600080fd5b600087013567ffffffffffffffff8111156104f457600080fd5b61050089828a01610497565b965050602087013567ffffffffffffffff81111561051d57600080fd5b61052989828a01610497565b955050604087013567ffffffffffffffff81111561054657600080fd5b61055289828a01610497565b945050606087013567ffffffffffffffff81111561056f57600080fd5b61057b89828a01610497565b935050608087013567ffffffffffffffff81111561059857600080fd5b6105a489828a01610497565b92505060a087013567ffffffffffffffff8111156105c157600080fd5b6105cd89828a01610497565b9150509295509295509295565b60006105e5826106c2565b6105ef81856106cd565b93506105ff8185602086016106ed565b610608816107e1565b840191505092915050565b6000602082019050818103600083015261062d81846105da565b905092915050565b6000604082019050818103600083015261064f81856105da565b9050818103602083015261066381846105da565b90509392505050565b6000610676610687565b90506106828282610752565b919050565b6000604051905090565b600067ffffffffffffffff8211156106ac576106ab6107b2565b5b6106b5826107e1565b9050602081019050919050565b600081519050919050565b600082825260208201905092915050565b82818337600083830152505050565b60005b8381101561070b5780820151818401526020810190506106f0565b8381111561071a576000848401525b50505050565b6000600282049050600182168061073857607f821691505b6020821081141561074c5761074b610783565b5b50919050565b61075b826107e1565b810181811067ffffffffffffffff8211171561077a576107796107b2565b5b80604052505050565b7f4e487b7100000000000000000000000000000000000000000000000000000000600052602260045260246000fd5b7f4e487b7100000000000000000000000000000000000000000000000000000000600052604160045260246000fd5b6000601f19601f830116905091905056fea264697066735822122093d3f5db4bd3d97c6dfe4d0e478b61021c5fe8d5b3456a1cffa385add169bebf64736f6c634300080300334465706c6f79696e67207468652072656e74616c2061677265656d656e7420746f207769746820746865207370656369666965642064657461696c732e",
  "linkReferences": {},
  "deployedLinkReferences": {}
}